{
  "contractName": "Crowdsale",
  "abi": [
    {
      "constant": true,
      "inputs": [],
      "name": "coin",
      "outputs": [
        {
          "name": "",
          "type": "address"
        }
      ],
      "payable": false,
      "stateMutability": "view",
      "type": "function"
    },
    {
      "constant": true,
      "inputs": [],
      "name": "maxCap",
      "outputs": [
        {
          "name": "",
          "type": "uint256"
        }
      ],
      "payable": false,
      "stateMutability": "view",
      "type": "function"
    },
    {
      "constant": true,
      "inputs": [],
      "name": "endTime",
      "outputs": [
        {
          "name": "",
          "type": "uint256"
        }
      ],
      "payable": false,
      "stateMutability": "view",
      "type": "function"
    },
    {
      "constant": true,
      "inputs": [],
      "name": "weiRaised",
      "outputs": [
        {
          "name": "",
          "type": "uint256"
        }
      ],
      "payable": false,
      "stateMutability": "view",
      "type": "function"
    },
    {
      "constant": true,
      "inputs": [],
      "name": "tokensSold",
      "outputs": [
        {
          "name": "",
          "type": "uint256"
        }
      ],
      "payable": false,
      "stateMutability": "view",
      "type": "function"
    },
    {
      "constant": true,
      "inputs": [],
      "name": "startTime",
      "outputs": [
        {
          "name": "",
          "type": "uint256"
        }
      ],
      "payable": false,
      "stateMutability": "view",
      "type": "function"
    },
    {
      "constant": true,
      "inputs": [],
      "name": "owner",
      "outputs": [
        {
          "name": "",
          "type": "address"
        }
      ],
      "payable": false,
      "stateMutability": "view",
      "type": "function"
    },
    {
      "constant": true,
      "inputs": [],
      "name": "multisigVault",
      "outputs": [
        {
          "name": "",
          "type": "address"
        }
      ],
      "payable": false,
      "stateMutability": "view",
      "type": "function"
    },
    {
      "constant": false,
      "inputs": [
        {
          "name": "newOwner",
          "type": "address"
        }
      ],
      "name": "transferOwnership",
      "outputs": [],
      "payable": false,
      "stateMutability": "nonpayable",
      "type": "function"
    },
    {
      "inputs": [
        {
          "name": "_TMYTokenAddress",
          "type": "address"
        },
        {
          "name": "_to",
          "type": "address"
        },
        {
          "name": "_maxCap",
          "type": "uint256"
        }
      ],
      "payable": false,
      "stateMutability": "nonpayable",
      "type": "constructor"
    },
    {
      "payable": true,
      "stateMutability": "payable",
      "type": "fallback"
    },
    {
      "anonymous": false,
      "inputs": [
        {
          "indexed": true,
          "name": "purchaser",
          "type": "address"
        },
        {
          "indexed": true,
          "name": "beneficiary",
          "type": "address"
        },
        {
          "indexed": false,
          "name": "value",
          "type": "uint256"
        },
        {
          "indexed": false,
          "name": "amount",
          "type": "uint256"
        }
      ],
      "name": "TokenPurchase",
      "type": "event"
    },
    {
      "anonymous": false,
      "inputs": [
        {
          "indexed": true,
          "name": "previousOwner",
          "type": "address"
        },
        {
          "indexed": true,
          "name": "newOwner",
          "type": "address"
        }
      ],
      "name": "OwnershipTransferred",
      "type": "event"
    },
    {
      "constant": false,
      "inputs": [
        {
          "name": "_multisigVault",
          "type": "address"
        }
      ],
      "name": "setMultiSigVault",
      "outputs": [],
      "payable": false,
      "stateMutability": "nonpayable",
      "type": "function"
    },
    {
      "constant": false,
      "inputs": [
        {
          "name": "beneficiary",
          "type": "address"
        }
      ],
      "name": "buyTokens",
      "outputs": [],
      "payable": true,
      "stateMutability": "payable",
      "type": "function"
    },
    {
      "constant": true,
      "inputs": [],
      "name": "hasEnded",
      "outputs": [
        {
          "name": "",
          "type": "bool"
        }
      ],
      "payable": false,
      "stateMutability": "view",
      "type": "function"
    },
    {
      "constant": false,
      "inputs": [],
      "name": "finalizeCrowdsale",
      "outputs": [],
      "payable": false,
      "stateMutability": "nonpayable",
      "type": "function"
    }
  ],
  "bytecode": "0x6060604052341561000f57600080fd5b604051606080610e5f83398101604052808051906020019091908051906020019091908051906020019091905050336000806101000a81548173ffffffffffffffffffffffffffffffffffffffff021916908373ffffffffffffffffffffffffffffffffffffffff16021790555082600260006101000a81548173ffffffffffffffffffffffffffffffffffffffff021916908373ffffffffffffffffffffffffffffffffffffffff16021790555081600160006101000a81548173ffffffffffffffffffffffffffffffffffffffff021916908373ffffffffffffffffffffffffffffffffffffffff16021790555080600781905550426003819055506262e08060035401600481905550505050610d328061012d6000396000f3006060604052600436106100c5576000357c0100000000000000000000000000000000000000000000000000000000900463ffffffff1680630bf318a3146100d057806311df9995146100e557806323548b8b1461013a5780633197cbb6146101635780634042b66f1461018c578063518ab2a8146101b557806378e97925146101de5780638da5cb5b146102075780639cc1616a1461025c578063d0c03f3514610295578063ec8ac4d8146102ea578063ecb70fb714610318578063f2fde38b14610345575b6100ce3361037e565b005b34156100db57600080fd5b6100e3610672565b005b34156100f057600080fd5b6100f86108f8565b604051808273ffffffffffffffffffffffffffffffffffffffff1673ffffffffffffffffffffffffffffffffffffffff16815260200191505060405180910390f35b341561014557600080fd5b61014d61091e565b6040518082815260200191505060405180910390f35b341561016e57600080fd5b610176610924565b6040518082815260200191505060405180910390f35b341561019757600080fd5b61019f61092a565b6040518082815260200191505060405180910390f35b34156101c057600080fd5b6101c8610930565b6040518082815260200191505060405180910390f35b34156101e957600080fd5b6101f1610936565b6040518082815260200191505060405180910390f35b341561021257600080fd5b61021a61093c565b604051808273ffffffffffffffffffffffffffffffffffffffff1673ffffffffffffffffffffffffffffffffffffffff16815260200191505060405180910390f35b341561026757600080fd5b610293600480803573ffffffffffffffffffffffffffffffffffffffff16906020019091905050610961565b005b34156102a057600080fd5b6102a8610a3c565b604051808273ffffffffffffffffffffffffffffffffffffffff1673ffffffffffffffffffffffffffffffffffffffff16815260200191505060405180910390f35b610316600480803573ffffffffffffffffffffffffffffffffffffffff1690602001909190505061037e565b005b341561032357600080fd5b61032b610a62565b604051808215151515815260200191505060405180910390f35b341561035057600080fd5b61037c600480803573ffffffffffffffffffffffffffffffffffffffff16906020019091905050610a7d565b005b60008060008060008573ffffffffffffffffffffffffffffffffffffffff16141515156103aa57600080fd5b600034141515156103ba57600080fd5b6103c2610a62565b1515156103ce57600080fd5b600354421115156103de57600080fd5b349350600092506103ee84610bd2565b91506000821115156103ff57600080fd5b600754826006540111156104335760075482600654010390508181850281151561042557fe5b049250828403935080820391505b61044884600554610cad90919063ffffffff16565b60058190555061046382600654610cad90919063ffffffff16565b600681905550600260009054906101000a900473ffffffffffffffffffffffffffffffffffffffff1673ffffffffffffffffffffffffffffffffffffffff1663a9059cbb86846000604051602001526040518363ffffffff167c0100000000000000000000000000000000000000000000000000000000028152600401808373ffffffffffffffffffffffffffffffffffffffff1673ffffffffffffffffffffffffffffffffffffffff16815260200182815260200192505050602060405180830381600087803b151561053657600080fd5b6102c65a03f1151561054757600080fd5b50505060405180519050508473ffffffffffffffffffffffffffffffffffffffff163373ffffffffffffffffffffffffffffffffffffffff167f623b3804fa71d67900d064613da8f94b9617215ee90799290593e1745087ad188685604051808381526020018281526020019250505060405180910390a3600160009054906101000a900473ffffffffffffffffffffffffffffffffffffffff1673ffffffffffffffffffffffffffffffffffffffff166108fc859081150290604051600060405180830381858888f19350505050151561062157600080fd5b600083111561066b578473ffffffffffffffffffffffffffffffffffffffff166108fc849081150290604051600060405180830381858888f19350505050151561066a57600080fd5b5b5050505050565b61067a610a62565b151561068557600080fd5b6000600260009054906101000a900473ffffffffffffffffffffffffffffffffffffffff1673ffffffffffffffffffffffffffffffffffffffff166370a08231306000604051602001526040518263ffffffff167c0100000000000000000000000000000000000000000000000000000000028152600401808273ffffffffffffffffffffffffffffffffffffffff1673ffffffffffffffffffffffffffffffffffffffff168152602001915050602060405180830381600087803b151561074c57600080fd5b6102c65a03f1151561075d57600080fd5b5050506040518051905011151561077357600080fd5b600260009054906101000a900473ffffffffffffffffffffffffffffffffffffffff1673ffffffffffffffffffffffffffffffffffffffff166342966c68600260009054906101000a900473ffffffffffffffffffffffffffffffffffffffff1673ffffffffffffffffffffffffffffffffffffffff166370a08231306000604051602001526040518263ffffffff167c0100000000000000000000000000000000000000000000000000000000028152600401808273ffffffffffffffffffffffffffffffffffffffff1673ffffffffffffffffffffffffffffffffffffffff168152602001915050602060405180830381600087803b151561087657600080fd5b6102c65a03f1151561088757600080fd5b505050604051805190506040518263ffffffff167c010000000000000000000000000000000000000000000000000000000002815260040180828152602001915050600060405180830381600087803b15156108e257600080fd5b6102c65a03f115156108f357600080fd5b505050565b600260009054906101000a900473ffffffffffffffffffffffffffffffffffffffff1681565b60075481565b60045481565b60055481565b60065481565b60035481565b6000809054906101000a900473ffffffffffffffffffffffffffffffffffffffff1681565b6000809054906101000a900473ffffffffffffffffffffffffffffffffffffffff1673ffffffffffffffffffffffffffffffffffffffff163373ffffffffffffffffffffffffffffffffffffffff161415156109bc57600080fd5b600073ffffffffffffffffffffffffffffffffffffffff168173ffffffffffffffffffffffffffffffffffffffff16141515156109f857600080fd5b80600160006101000a81548173ffffffffffffffffffffffffffffffffffffffff021916908373ffffffffffffffffffffffffffffffffffffffff16021790555050565b600160009054906101000a900473ffffffffffffffffffffffffffffffffffffffff1681565b6000600454421180610a78575060075460065410155b905090565b6000809054906101000a900473ffffffffffffffffffffffffffffffffffffffff1673ffffffffffffffffffffffffffffffffffffffff163373ffffffffffffffffffffffffffffffffffffffff16141515610ad857600080fd5b600073ffffffffffffffffffffffffffffffffffffffff168173ffffffffffffffffffffffffffffffffffffffff1614151515610b1457600080fd5b8073ffffffffffffffffffffffffffffffffffffffff166000809054906101000a900473ffffffffffffffffffffffffffffffffffffffff1673ffffffffffffffffffffffffffffffffffffffff167f8be0079c531659141344cd1fd0a4f28419497f9722a3daafe3b4186f6b6457e060405160405180910390a3806000806101000a81548173ffffffffffffffffffffffffffffffffffffffff021916908373ffffffffffffffffffffffffffffffffffffffff16021790555050565b60008066038d7ea4c68000831015610bed5760009150610ca7565b610c0261096084610ccb90919063ffffffff16565b905062093a8060035401421015610c2c576064600c8202811515610c2257fe5b0481019050610ca3565b6212750060035401421015610c5457606460098202811515610c4a57fe5b0481019050610ca2565b621baf8060035401421015610c7c57606460068202811515610c7257fe5b0481019050610ca1565b6224ea0060035401421015610ca057606460038202811515610c9a57fe5b04810190505b5b5b5b8091505b50919050565b6000808284019050838110151515610cc157fe5b8091505092915050565b6000806000841415610ce05760009150610cff565b8284029050828482811515610cf157fe5b04141515610cfb57fe5b8091505b50929150505600a165627a7a723058204d839391345d9a754d3f693f82ca0006e762e489bf42c9faf0cbb81fb7bff4380029",
  "source": "pragma solidity ^0.4.15;\n\nimport \"./TMYToken.sol\";\n\ncontract Crowdsale is Ownable {\n    using SafeMath for uint256;\n\n    // address where funds are collected\n    address public multisigVault;\n\n    TMYToken public coin;\n\n    // start and end timestamps where investments are allowed (both inclusive)\n    uint256 public startTime;\n    uint256 public endTime;\n    // amount of raised money in wei\n    uint256 public weiRaised;\n    // amount of tokens sold\n    uint256 public tokensSold;\n    // max amount of token for sale during ICO\n    uint256 public maxCap;\n\n    /**\n    * event for token purchase logging\n    * @param purchaser who paid for the tokens\n    * @param beneficiary who got the tokens\n    * @param value weis paid for purchase\n    * @param amount of tokens purchased\n    */\n    event TokenPurchase(address indexed purchaser, address indexed beneficiary, uint256 value, uint256 amount);\n\n    function Crowdsale(address _TMYTokenAddress, address _to, uint256 _maxCap) {\n        coin = TMYToken(_TMYTokenAddress);\n        multisigVault = _to;\n        maxCap = _maxCap;\n\n        // startTime = 1518651000; // new Date(\"Feb 14 2018 23:30:00 GMT\").getTime() / 1000;\n        startTime = now; // for testing we use now\n        endTime = startTime + 75 days;\n    }\n\n    // fallback function can be used to buy tokens\n    function () payable {\n        buyTokens(msg.sender);\n    }\n\n    // allow owner to modify address of wallet\n    function setMultiSigVault(address _multisigVault) public onlyOwner {\n        require(_multisigVault != address(0));\n        multisigVault = _multisigVault;\n    }\n\n    // compute amount of token based on 1 ETH = 2400 TMY\n    function getTokenAmount(uint256 _weiAmount) internal returns(uint256) {\n        // minimum deposit amount is 0.4 ETH\n        if (_weiAmount < 0.001 * (10 ** 18)) {\n          return 0;\n        }\n\n        uint256 tokens = _weiAmount.mul(2400);\n        // compute bonus\n        if(now < startTime + 7 * 1 days) {\n            tokens += (tokens * 12) / 100; // 12% for first week\n        } else if(now < startTime + 14 * 1 days) {\n            tokens += (tokens * 9) / 100; // 9% for second week\n        } else if(now < startTime + 21 * 1 days) {\n            tokens += (tokens * 6) / 100; // 6% for third week\n        } else if(now < startTime + 28 * 1 days) {\n            tokens += (tokens * 3) / 100; // 3% for fourth week\n        }\n\n        return tokens;\n    }\n\n    // low level token purchase function\n    function buyTokens(address beneficiary) payable {\n        require(beneficiary != 0x0);\n        require(msg.value != 0);\n        require(!hasEnded());\n        require(now > startTime);\n\n        uint256 weiAmount = msg.value;\n        uint256 refundWeiAmount = 0;\n\n        // calculate token amount to be sent\n        uint256 tokens = getTokenAmount(weiAmount);\n        require(tokens > 0);\n\n        // check if we are over maxCap\n        if (tokensSold + tokens > maxCap) {\n          // send remaining tokens to user\n          uint256 overSoldTokens = (tokensSold + tokens) - maxCap;\n          refundWeiAmount = weiAmount * overSoldTokens / tokens;\n          weiAmount = weiAmount - refundWeiAmount;\n          tokens = tokens - overSoldTokens;\n        }\n\n        // update state\n        weiRaised = weiRaised.add(weiAmount);\n        tokensSold = tokensSold.add(tokens);\n\n        coin.transfer(beneficiary, tokens);\n        TokenPurchase(msg.sender, beneficiary, weiAmount, tokens);\n        multisigVault.transfer(weiAmount);\n\n        // return extra ether to last user\n        if (refundWeiAmount > 0) {\n          beneficiary.transfer(refundWeiAmount);\n        }\n    }\n\n    // @return true if crowdsale event has ended\n    function hasEnded() public constant returns (bool) {\n        return now > endTime || tokensSold >= maxCap;\n    }\n\n    // Finalize crowdsale buy burning the remaining tokens\n    // can only be called when the ICO is over\n    function finalizeCrowdsale() {\n        require(hasEnded());\n        require(coin.balanceOf(this) > 0);\n\n        coin.burn(coin.balanceOf(this));\n    }\n}\n",
  "sourcePath": "/Users/golfier/Documents/Projet/timoney-token/contracts/Crowdsale.sol",
  "compiler": {
    "name": "solc",
    "version": "0.4.19+commit.c4cbbb05.Emscripten.clang"
  },
  "schemaVersion": "2.0.0",
  "updatedAt": "2018-03-17T21:49:38.723Z"
}